{
  "_format": "hh-sol-artifact-1",
  "contractName": "CrowdTank",
  "sourceName": "contracts/CrowdTank.sol",
  "abi": [
    {
      "inputs": [],
      "stateMutability": "nonpayable",
      "type": "constructor"
    },
    {
      "anonymous": false,
      "inputs": [
        {
          "indexed": true,
          "internalType": "uint256",
          "name": "projectId",
          "type": "uint256"
        },
        {
          "indexed": true,
          "internalType": "address",
          "name": "withdrawer",
          "type": "address"
        },
        {
          "indexed": false,
          "internalType": "uint256",
          "name": "amount",
          "type": "uint256"
        },
        {
          "indexed": false,
          "internalType": "string",
          "name": "withdrawerType",
          "type": "string"
        }
      ],
      "name": "FundsWithdrawn",
      "type": "event"
    },
    {
      "anonymous": false,
      "inputs": [
        {
          "indexed": true,
          "internalType": "uint256",
          "name": "projectId",
          "type": "uint256"
        },
        {
          "indexed": true,
          "internalType": "address",
          "name": "creator",
          "type": "address"
        },
        {
          "indexed": false,
          "internalType": "string",
          "name": "name",
          "type": "string"
        },
        {
          "indexed": false,
          "internalType": "string",
          "name": "description",
          "type": "string"
        },
        {
          "indexed": false,
          "internalType": "uint256",
          "name": "fundingGoal",
          "type": "uint256"
        },
        {
          "indexed": false,
          "internalType": "uint256",
          "name": "deadline",
          "type": "uint256"
        }
      ],
      "name": "ProjectCreated",
      "type": "event"
    },
    {
      "anonymous": false,
      "inputs": [
        {
          "indexed": true,
          "internalType": "uint256",
          "name": "projectId",
          "type": "uint256"
        },
        {
          "indexed": true,
          "internalType": "address",
          "name": "contributor",
          "type": "address"
        },
        {
          "indexed": false,
          "internalType": "uint256",
          "name": "amount",
          "type": "uint256"
        }
      ],
      "name": "ProjectFunded",
      "type": "event"
    },
    {
      "inputs": [
        {
          "internalType": "uint256",
          "name": "_projectId",
          "type": "uint256"
        }
      ],
      "name": "adminWithdrawFunds",
      "outputs": [],
      "stateMutability": "payable",
      "type": "function"
    },
    {
      "inputs": [],
      "name": "chargeCommission",
      "outputs": [],
      "stateMutability": "payable",
      "type": "function"
    },
    {
      "inputs": [],
      "name": "commissionCollected",
      "outputs": [
        {
          "internalType": "uint256",
          "name": "",
          "type": "uint256"
        }
      ],
      "stateMutability": "view",
      "type": "function"
    },
    {
      "inputs": [
        {
          "internalType": "string",
          "name": "_name",
          "type": "string"
        },
        {
          "internalType": "string",
          "name": "_description",
          "type": "string"
        },
        {
          "internalType": "uint256",
          "name": "_fundingGoal",
          "type": "uint256"
        },
        {
          "internalType": "uint256",
          "name": "_durationSeconds",
          "type": "uint256"
        },
        {
          "internalType": "uint256",
          "name": "_id",
          "type": "uint256"
        }
      ],
      "name": "createProject",
      "outputs": [],
      "stateMutability": "nonpayable",
      "type": "function"
    },
    {
      "inputs": [
        {
          "internalType": "uint256",
          "name": "_projectId",
          "type": "uint256"
        },
        {
          "internalType": "uint256",
          "name": "_additionalSeconds",
          "type": "uint256"
        }
      ],
      "name": "enhanceDeadline",
      "outputs": [],
      "stateMutability": "nonpayable",
      "type": "function"
    },
    {
      "inputs": [
        {
          "internalType": "uint256",
          "name": "_projectId",
          "type": "uint256"
        }
      ],
      "name": "fundProject",
      "outputs": [],
      "stateMutability": "payable",
      "type": "function"
    },
    {
      "inputs": [],
      "name": "getFailedProjects",
      "outputs": [
        {
          "internalType": "uint256",
          "name": "",
          "type": "uint256"
        }
      ],
      "stateMutability": "view",
      "type": "function"
    },
    {
      "inputs": [
        {
          "internalType": "uint256",
          "name": "_projectId",
          "type": "uint256"
        }
      ],
      "name": "getRemainingTime",
      "outputs": [
        {
          "internalType": "uint256",
          "name": "",
          "type": "uint256"
        }
      ],
      "stateMutability": "view",
      "type": "function"
    },
    {
      "inputs": [],
      "name": "getSuccessfulProjects",
      "outputs": [
        {
          "internalType": "uint256",
          "name": "",
          "type": "uint256"
        }
      ],
      "stateMutability": "view",
      "type": "function"
    },
    {
      "inputs": [],
      "name": "getTotalProjects",
      "outputs": [
        {
          "internalType": "uint256",
          "name": "",
          "type": "uint256"
        }
      ],
      "stateMutability": "view",
      "type": "function"
    },
    {
      "inputs": [
        {
          "internalType": "uint256",
          "name": "",
          "type": "uint256"
        }
      ],
      "name": "isIdUsed",
      "outputs": [
        {
          "internalType": "bool",
          "name": "",
          "type": "bool"
        }
      ],
      "stateMutability": "view",
      "type": "function"
    },
    {
      "inputs": [],
      "name": "owner",
      "outputs": [
        {
          "internalType": "address",
          "name": "",
          "type": "address"
        }
      ],
      "stateMutability": "view",
      "type": "function"
    },
    {
      "inputs": [
        {
          "internalType": "uint256",
          "name": "",
          "type": "uint256"
        }
      ],
      "name": "projects",
      "outputs": [
        {
          "internalType": "address",
          "name": "creator",
          "type": "address"
        },
        {
          "internalType": "string",
          "name": "name",
          "type": "string"
        },
        {
          "internalType": "string",
          "name": "description",
          "type": "string"
        },
        {
          "internalType": "uint256",
          "name": "fundingGoal",
          "type": "uint256"
        },
        {
          "internalType": "uint256",
          "name": "deadline",
          "type": "uint256"
        },
        {
          "internalType": "uint256",
          "name": "amountRaised",
          "type": "uint256"
        },
        {
          "internalType": "bool",
          "name": "funded",
          "type": "bool"
        }
      ],
      "stateMutability": "view",
      "type": "function"
    },
    {
      "inputs": [],
      "name": "systemCommission",
      "outputs": [
        {
          "internalType": "uint256",
          "name": "",
          "type": "uint256"
        }
      ],
      "stateMutability": "view",
      "type": "function"
    },
    {
      "inputs": [],
      "name": "totalFundedProjects",
      "outputs": [
        {
          "internalType": "uint256",
          "name": "",
          "type": "uint256"
        }
      ],
      "stateMutability": "view",
      "type": "function"
    },
    {
      "inputs": [],
      "name": "totalProjects",
      "outputs": [
        {
          "internalType": "uint256",
          "name": "",
          "type": "uint256"
        }
      ],
      "stateMutability": "view",
      "type": "function"
    },
    {
      "inputs": [
        {
          "internalType": "uint256",
          "name": "_projectId",
          "type": "uint256"
        }
      ],
      "name": "userWithdrawFunds",
      "outputs": [],
      "stateMutability": "payable",
      "type": "function"
    },
    {
      "inputs": [],
      "name": "withdrawCommission",
      "outputs": [],
      "stateMutability": "nonpayable",
      "type": "function"
    }
  ],
  "bytecode": "0x608060405234801561001057600080fd5b50336000806101000a81548173ffffffffffffffffffffffffffffffffffffffff021916908373ffffffffffffffffffffffffffffffffffffffff160217905550611da1806100606000396000f3fe6080604052600436106101095760003560e01c80637b12376e116100955780638da5cb5b116100645780638da5cb5b146103245780639c361e4e1461034f578063b1357b681461037a578063c49f597b14610396578063f81bf601146103c157610109565b80637b12376e146102895780637cc21e0a146102c6578063812739a2146102ef578063895d6d451461031a57610109565b80632a661dac116100dc5780632a661dac146101e45780633e25e8371461020f578063592cef6d146102265780635b0e22dd146102425780636c563abe1461026d57610109565b80630bdc87121461010e578063107046bd146101395780631124acf41461017c578063181e0124146101a7575b600080fd5b34801561011a57600080fd5b506101236103ea565b60405161013091906116a9565b60405180910390f35b34801561014557600080fd5b50610160600480360381019061015b91906111f4565b6103f4565b604051610173979695949392919061147e565b60405180910390f35b34801561018857600080fd5b50610191610573565b60405161019e91906116a9565b60405180910390f35b3480156101b357600080fd5b506101ce60048036038101906101c991906111f4565b61057d565b6040516101db91906116a9565b60405180910390f35b3480156101f057600080fd5b506101f96105d0565b60405161020691906116a9565b60405180910390f35b34801561021b57600080fd5b506102246105e7565b005b610240600480360381019061023b91906111f4565b6106c8565b005b34801561024e57600080fd5b50610257610822565b60405161026491906116a9565b60405180910390f35b610287600480360381019061028291906111f4565b610828565b005b34801561029557600080fd5b506102b060048036038101906102ab91906111f4565b610a6e565b6040516102bd91906114fb565b60405180910390f35b3480156102d257600080fd5b506102ed60048036038101906102e8919061121d565b610a8e565b005b3480156102fb57600080fd5b50610304610b57565b60405161031191906116a9565b60405180910390f35b610322610b61565b005b34801561033057600080fd5b50610339610bd7565b6040516103469190611463565b60405180910390f35b34801561035b57600080fd5b50610364610bfb565b60405161037191906116a9565b60405180910390f35b610394600480360381019061038f91906111f4565b610c01565b005b3480156103a257600080fd5b506103ab610de4565b6040516103b891906116a9565b60405180910390f35b3480156103cd57600080fd5b506103e860048036038101906103e3919061114d565b610dea565b005b6000600554905090565b60016020528060005260406000206000915090508060000160009054906101000a900473ffffffffffffffffffffffffffffffffffffffff169080600101805461043d90611931565b80601f016020809104026020016040519081016040528092919081815260200182805461046990611931565b80156104b65780601f1061048b576101008083540402835291602001916104b6565b820191906000526020600020905b81548152906001019060200180831161049957829003601f168201915b5050505050908060020180546104cb90611931565b80601f01602080910402602001604051908101604052809291908181526020018280546104f790611931565b80156105445780601f1061051957610100808354040283529160200191610544565b820191906000526020600020905b81548152906001019060200180831161052757829003601f168201915b5050505050908060030154908060040154908060050154908060060160009054906101000a900460ff16905087565b6000600454905090565b600060016000838152602001908152602001600020600401544211156105a657600090506105cb565b4260016000848152602001908152602001600020600401546105c89190611873565b90505b919050565b60006004546003546105e29190611873565b905090565b60008054906101000a900473ffffffffffffffffffffffffffffffffffffffff1673ffffffffffffffffffffffffffffffffffffffff163373ffffffffffffffffffffffffffffffffffffffff1614610675576040517f08c379a000000000000000000000000000000000000000000000000000000000815260040161066c906115c9565b60405180910390fd5b3373ffffffffffffffffffffffffffffffffffffffff166108fc6005549081150290604051600060405180830381858888f193505050501580156106bd573d6000803e3d6000fd5b506000600581905550565b60006001600083815260200190815260200160002090508060060160009054906101000a900460ff16158015610702575042816004015411155b610741576040517f08c379a000000000000000000000000000000000000000000000000000000000815260040161073890611589565b60405180910390fd5b60008160070160003373ffffffffffffffffffffffffffffffffffffffff1673ffffffffffffffffffffffffffffffffffffffff1681526020019081526020016000205490503373ffffffffffffffffffffffffffffffffffffffff166108fc829081150290604051600060405180830381858888f193505050501580156107cd573d6000803e3d6000fd5b503373ffffffffffffffffffffffffffffffffffffffff16837fb75d00e1d92f7c53294cdc188f9f767b52a51b39c0d8ab432ed851cd1973229e8360405161081591906116c4565b60405180910390a3505050565b60045481565b60006001600083815260200190815260200160002090508060040154421115610886576040517f08c379a000000000000000000000000000000000000000000000000000000000815260040161087d90611629565b60405180910390fd5b8060060160009054906101000a900460ff16156108d8576040517f08c379a00000000000000000000000000000000000000000000000000000000081526004016108cf90611689565b60405180910390fd5b6000341161091b576040517f08c379a0000000000000000000000000000000000000000000000000000000008152600401610912906115e9565b60405180910390fd5b6000606460053461092c9190611819565b61093691906117e8565b9050806005600082825461094a9190611792565b925050819055506000813461095f9190611873565b9050808360050160008282546109759190611792565b92505081905550808360070160003373ffffffffffffffffffffffffffffffffffffffff1673ffffffffffffffffffffffffffffffffffffffff16815260200190815260200160002060008282546109cd9190611792565b925050819055503373ffffffffffffffffffffffffffffffffffffffff16847f6251418ffd7f504740544ec3d578897633e212c5d658b7dce793c5dc9d2e855e83604051610a1b91906116a9565b60405180910390a38260030154836005015410610a685760018360060160006101000a81548160ff02191690831515021790555060046000815480929190610a6290611994565b91905055505b50505050565b60026020528060005260406000206000915054906101000a900460ff1681565b60006001600084815260200190815260200160002090503373ffffffffffffffffffffffffffffffffffffffff168160000160009054906101000a900473ffffffffffffffffffffffffffffffffffffffff1673ffffffffffffffffffffffffffffffffffffffff1614610b37576040517f08c379a0000000000000000000000000000000000000000000000000000000008152600401610b2e90611609565b60405180910390fd5b81816004016000828254610b4b9190611792565b92505081905550505050565b6000600354905090565b60003411610ba4576040517f08c379a0000000000000000000000000000000000000000000000000000000008152600401610b9b906115e9565b60405180910390fd5b6064600534610bb39190611819565b610bbd91906117e8565b60056000828254610bce9190611792565b92505081905550565b60008054906101000a900473ffffffffffffffffffffffffffffffffffffffff1681565b60035481565b60006001600083815260200190815260200160002090508060060160009054906101000a900460ff16610c69576040517f08c379a0000000000000000000000000000000000000000000000000000000008152600401610c60906115a9565b60405180910390fd5b3373ffffffffffffffffffffffffffffffffffffffff168160000160009054906101000a900473ffffffffffffffffffffffffffffffffffffffff1673ffffffffffffffffffffffffffffffffffffffff1614610cfb576040517f08c379a0000000000000000000000000000000000000000000000000000000008152600401610cf290611669565b60405180910390fd5b4281600401541115610d42576040517f08c379a0000000000000000000000000000000000000000000000000000000008152600401610d3990611649565b60405180910390fd5b3373ffffffffffffffffffffffffffffffffffffffff166108fc82600501549081150290604051600060405180830381858888f19350505050158015610d8c573d6000803e3d6000fd5b503373ffffffffffffffffffffffffffffffffffffffff16827fb75d00e1d92f7c53294cdc188f9f767b52a51b39c0d8ab432ed851cd1973229e8360050154604051610dd891906116f2565b60405180910390a35050565b60055481565b6002600082815260200190815260200160002060009054906101000a900460ff1615610e4b576040517f08c379a0000000000000000000000000000000000000000000000000000000008152600401610e4290611569565b60405180910390fd5b60016002600083815260200190815260200160002060006101000a81548160ff021916908315150217905550336001600083815260200190815260200160002060000160006101000a81548173ffffffffffffffffffffffffffffffffffffffff021916908373ffffffffffffffffffffffffffffffffffffffff16021790555084600160008381526020019081526020016000206001019080519060200190610ef692919061102d565b5083600160008381526020019081526020016000206002019080519060200190610f2192919061102d565b508260016000838152602001908152602001600020600301819055508142610f499190611792565b60016000838152602001908152602001600020600401819055506000600160008381526020019081526020016000206005018190555060006001600083815260200190815260200160002060060160006101000a81548160ff0219169083151502179055503373ffffffffffffffffffffffffffffffffffffffff16817fac9b83534845c9e785a6ea70f2d809db1d72ef9a1d981753712d922f5cb55f398787878742610ff69190611792565b6040516110069493929190611516565b60405180910390a36003600081548092919061102190611994565b91905055505050505050565b82805461103990611931565b90600052602060002090601f01602090048101928261105b57600085556110a2565b82601f1061107457805160ff19168380011785556110a2565b828001600101855582156110a2579182015b828111156110a1578251825591602001919060010190611086565b5b5090506110af91906110b3565b5090565b5b808211156110cc5760008160009055506001016110b4565b5090565b60006110e36110de84611745565b611720565b9050828152602081018484840111156110fb57600080fd5b6111068482856118ef565b509392505050565b600082601f83011261111f57600080fd5b813561112f8482602086016110d0565b91505092915050565b60008135905061114781611d54565b92915050565b600080600080600060a0868803121561116557600080fd5b600086013567ffffffffffffffff81111561117f57600080fd5b61118b8882890161110e565b955050602086013567ffffffffffffffff8111156111a857600080fd5b6111b48882890161110e565b94505060406111c588828901611138565b93505060606111d688828901611138565b92505060806111e788828901611138565b9150509295509295909350565b60006020828403121561120657600080fd5b600061121484828501611138565b91505092915050565b6000806040838503121561123057600080fd5b600061123e85828601611138565b925050602061124f85828601611138565b9150509250929050565b611262816118a7565b82525050565b611271816118b9565b82525050565b600061128282611776565b61128c8185611781565b935061129c8185602086016118fe565b6112a581611a99565b840191505092915050565b60006112bd601a83611781565b91506112c882611aaa565b602082019050919050565b60006112e0602e83611781565b91506112eb82611ad3565b604082019050919050565b6000611303601983611781565b915061130e82611b22565b602082019050919050565b6000611326602283611781565b915061133182611b4b565b604082019050919050565b6000611349601d83611781565b915061135482611b9a565b602082019050919050565b600061136c602983611781565b915061137782611bc3565b604082019050919050565b600061138f602283611781565b915061139a82611c12565b604082019050919050565b60006113b2602383611781565b91506113bd82611c61565b604082019050919050565b60006113d5600483611781565b91506113e082611cb0565b602082019050919050565b60006113f8601f83611781565b915061140382611cd9565b602082019050919050565b600061141b601983611781565b915061142682611d02565b602082019050919050565b600061143e600583611781565b915061144982611d2b565b602082019050919050565b61145d816118e5565b82525050565b60006020820190506114786000830184611259565b92915050565b600060e082019050611493600083018a611259565b81810360208301526114a58189611277565b905081810360408301526114b98188611277565b90506114c86060830187611454565b6114d56080830186611454565b6114e260a0830185611454565b6114ef60c0830184611268565b98975050505050505050565b60006020820190506115106000830184611268565b92915050565b600060808201905081810360008301526115308187611277565b905081810360208301526115448186611277565b90506115536040830185611454565b6115606060830184611454565b95945050505050565b60006020820190508181036000830152611582816112b0565b9050919050565b600060208201905081810360008301526115a2816112d3565b9050919050565b600060208201905081810360008301526115c2816112f6565b9050919050565b600060208201905081810360008301526115e281611319565b9050919050565b600060208201905081810360008301526116028161133c565b9050919050565b600060208201905081810360008301526116228161135f565b9050919050565b6000602082019050818103600083015261164281611382565b9050919050565b60006020820190508181036000830152611662816113a5565b9050919050565b60006020820190508181036000830152611682816113eb565b9050919050565b600060208201905081810360008301526116a28161140e565b9050919050565b60006020820190506116be6000830184611454565b92915050565b60006040820190506116d96000830184611454565b81810360208301526116ea816113c8565b905092915050565b60006040820190506117076000830184611454565b818103602083015261171881611431565b905092915050565b600061172a61173b565b90506117368282611963565b919050565b6000604051905090565b600067ffffffffffffffff8211156117605761175f611a6a565b5b61176982611a99565b9050602081019050919050565b600081519050919050565b600082825260208201905092915050565b600061179d826118e5565b91506117a8836118e5565b9250827fffffffffffffffffffffffffffffffffffffffffffffffffffffffffffffffff038211156117dd576117dc6119dd565b5b828201905092915050565b60006117f3826118e5565b91506117fe836118e5565b92508261180e5761180d611a0c565b5b828204905092915050565b6000611824826118e5565b915061182f836118e5565b9250817fffffffffffffffffffffffffffffffffffffffffffffffffffffffffffffffff0483118215151615611868576118676119dd565b5b828202905092915050565b600061187e826118e5565b9150611889836118e5565b92508282101561189c5761189b6119dd565b5b828203905092915050565b60006118b2826118c5565b9050919050565b60008115159050919050565b600073ffffffffffffffffffffffffffffffffffffffff82169050919050565b6000819050919050565b82818337600083830152505050565b60005b8381101561191c578082015181840152602081019050611901565b8381111561192b576000848401525b50505050565b6000600282049050600182168061194957607f821691505b6020821081141561195d5761195c611a3b565b5b50919050565b61196c82611a99565b810181811067ffffffffffffffff8211171561198b5761198a611a6a565b5b80604052505050565b600061199f826118e5565b91507fffffffffffffffffffffffffffffffffffffffffffffffffffffffffffffffff8214156119d2576119d16119dd565b5b600182019050919050565b7f4e487b7100000000000000000000000000000000000000000000000000000000600052601160045260246000fd5b7f4e487b7100000000000000000000000000000000000000000000000000000000600052601260045260246000fd5b7f4e487b7100000000000000000000000000000000000000000000000000000000600052602260045260246000fd5b7f4e487b7100000000000000000000000000000000000000000000000000000000600052604160045260246000fd5b6000601f19601f8301169050919050565b7f50726f6a65637420496420697320616c72656164792075736564000000000000600082015250565b7f46756e64696e6720676f616c2069732072656163686564206f7220646561646c60008201527f696e65206e6f7420706173736564000000000000000000000000000000000000602082015250565b7f50726f6a656374206973206e6f742066756e6465642079657400000000000000600082015250565b7f4f6e6c79206f776e65722063616e20776974686472617720636f6d6d6973736960008201527f6f6e000000000000000000000000000000000000000000000000000000000000602082015250565b7f4d7573742073656e6420736f6d652076616c7565206f66206574686572000000600082015250565b7f4f6e6c792070726f6a6563742063726561746f722063616e20656e68616e636560008201527f20646561646c696e650000000000000000000000000000000000000000000000602082015250565b7f50726f6a65637420646561646c696e6520697320616c7265616479207061737360008201527f6564000000000000000000000000000000000000000000000000000000000000602082015250565b7f446561646c696e6520666f722070726f6a656374206973206e6f74207265616360008201527f6865640000000000000000000000000000000000000000000000000000000000602082015250565b7f7573657200000000000000000000000000000000000000000000000000000000600082015250565b7f4f6e6c792070726f6a6563742061646d696e2063616e20776974686472617700600082015250565b7f50726f6a65637420697320616c72656164792066756e64656400000000000000600082015250565b7f61646d696e000000000000000000000000000000000000000000000000000000600082015250565b611d5d816118e5565b8114611d6857600080fd5b5056fea26469706673582212201db15602c54452e841b0e64116bcb0ed4a013132a38ebdb8944c60b41677834264736f6c63430008040033",
  "linkReferences": {},
  "deployedLinkReferences": {}
}